{
  "_format": "hh3-artifact-1",
  "contractName": "Escrow",
  "sourceName": "contracts/Escrow.sol",
  "abi": [
    {
      "inputs": [],
      "stateMutability": "nonpayable",
      "type": "constructor"
    },
    {
      "inputs": [],
      "name": "contractAddress",
      "outputs": [
        {
          "internalType": "address",
          "name": "",
          "type": "address"
        }
      ],
      "stateMutability": "view",
      "type": "function"
    },
    {
      "inputs": [
        {
          "internalType": "address",
          "name": "_buyer",
          "type": "address"
        },
        {
          "internalType": "address",
          "name": "_seller",
          "type": "address"
        }
      ],
      "name": "createOrder",
      "outputs": [],
      "stateMutability": "nonpayable",
      "type": "function"
    },
    {
      "inputs": [
        {
          "internalType": "uint256",
          "name": "_id",
          "type": "uint256"
        }
      ],
      "name": "deposit",
      "outputs": [],
      "stateMutability": "payable",
      "type": "function"
    },
    {
      "inputs": [
        {
          "internalType": "uint256",
          "name": "",
          "type": "uint256"
        }
      ],
      "name": "orders",
      "outputs": [
        {
          "internalType": "uint256",
          "name": "id",
          "type": "uint256"
        },
        {
          "internalType": "address",
          "name": "buyer",
          "type": "address"
        },
        {
          "internalType": "address",
          "name": "seller",
          "type": "address"
        },
        {
          "internalType": "uint256",
          "name": "amount",
          "type": "uint256"
        },
        {
          "internalType": "enum Escrow.State",
          "name": "status",
          "type": "uint8"
        }
      ],
      "stateMutability": "view",
      "type": "function"
    },
    {
      "inputs": [
        {
          "internalType": "uint256",
          "name": "_id",
          "type": "uint256"
        }
      ],
      "name": "refundFundsToBuyer",
      "outputs": [],
      "stateMutability": "nonpayable",
      "type": "function"
    },
    {
      "inputs": [
        {
          "internalType": "uint256",
          "name": "_id",
          "type": "uint256"
        }
      ],
      "name": "releaseFundsToSeller",
      "outputs": [],
      "stateMutability": "nonpayable",
      "type": "function"
    },
    {
      "inputs": [
        {
          "internalType": "uint256",
          "name": "_transactionCount",
          "type": "uint256"
        }
      ],
      "name": "sendDelivery",
      "outputs": [],
      "stateMutability": "nonpayable",
      "type": "function"
    },
    {
      "inputs": [],
      "name": "transactionCount",
      "outputs": [
        {
          "internalType": "uint256",
          "name": "",
          "type": "uint256"
        }
      ],
      "stateMutability": "view",
      "type": "function"
    }
  ],
  "bytecode": "0x608060405260015f553480156012575f5ffd5b50600180546001600160a01b03191633179055610a48806100325f395ff3fe608060405260043610610079575f3560e01c8063b6b55f251161004c578063b6b55f251461014d578063b77bf60014610160578063bfe59feb14610182578063f6b4dfb4146101a1575f5ffd5b80631048d8001461007d5780635e3c57621461009e578063947aa72b146100bd578063a85c38ef146100dc575b5f5ffd5b348015610088575f5ffd5b5061009c610097366004610892565b6101d8565b005b3480156100a9575f5ffd5b5061009c6100b8366004610892565b61034e565b3480156100c8575f5ffd5b5061009c6100d7366004610892565b61040c565b3480156100e7575f5ffd5b506101336100f6366004610892565b600260208190525f91825260409091208054600182015492820154600383015460049093015491936001600160a01b039081169391169160ff1685565b6040516101449594939291906108bd565b60405180910390f35b61009c61015b366004610892565b610680565b34801561016b575f5ffd5b506101745f5481565b604051908152602001610144565b34801561018d575f5ffd5b5061009c61019c366004610929565b610772565b3480156101ac575f5ffd5b506001546101c0906001600160a01b031681565b6040516001600160a01b039091168152602001610144565b6001546001600160a01b0316331461020b5760405162461bcd60e51b81526004016102029061095a565b60405180910390fd5b5f818152600260205260409020600301548190471080159061022c57505f47115b6102485760405162461bcd60e51b81526004016102029061099e565b5f82815260026020526040902060040154829060019060ff166003811115610272576102726108a9565b816003811115610284576102846108a9565b146102a15760405162461bcd60e51b8152600401610202906109c7565b5f848152600260205260408082206001810154600382015492519193926001600160a01b03909116918381818185875af1925050503d805f8114610300576040519150601f19603f3d011682016040523d82523d5f602084013e610305565b606091505b50509050806103465760405162461bcd60e51b815260206004820152600d60248201526c1499599d5b990819985a5b1959609a1b6044820152606401610202565b505050505050565b5f818152600260205260409020600301548190471080159061036f57505f47115b61038b5760405162461bcd60e51b81526004016102029061099e565b5f82815260026020526040902060040154829060019060ff1660038111156103b5576103b56108a9565b8160038111156103c7576103c76108a9565b146103e45760405162461bcd60e51b8152600401610202906109c7565b5f848152600260208190526040909120600401805460ff19166001835b021790555050505050565b6001546001600160a01b031633146104365760405162461bcd60e51b81526004016102029061095a565b5f818152600260205260409020600301548190471080159061045757505f47115b6104735760405162461bcd60e51b81526004016102029061099e565b5f8281526002602081905260409091206004015483919060ff16600381111561049e5761049e6108a9565b8160038111156104b0576104b06108a9565b146104cd5760405162461bcd60e51b8152600401610202906109c7565b5f848152600260208181526040808420815160a0810183528154815260018201546001600160a01b0390811694820194909452938101549092169083015260038082015460608401526004820154608084019160ff90911690811115610535576105356108a9565b6003811115610546576105466108a9565b8152505090505f81604001516001600160a01b031682606001516040515f6040518083038185875af1925050503d805f811461059d576040519150601f19603f3d011682016040523d82523d5f602084013e6105a2565b606091505b50509050806105e55760405162461bcd60e51b815260206004820152600f60248201526e151c985b9cd9995c8819985a5b1959608a1b6044820152606401610202565b6003608083018181525f888152600260208181526040928390208751815590870151600180830180546001600160a01b03199081166001600160a01b039485161790915594890151938301805490951693909116929092179092556060860151828501559151600482018054879593949293919260ff19909116918490811115610671576106716108a9565b02179055505050505050505050565b5f8181526002602052604090206001015481906001600160a01b031633146106f45760405162461bcd60e51b815260206004820152602160248201527f4f6e6c792062757965722063616e2063616c6c20746869732066756e6374696f6044820152603760f91b6064820152608401610202565b5f8281526002602052604081206004015483919060ff16600381111561071c5761071c6108a9565b81600381111561072e5761072e6108a9565b1461074b5760405162461bcd60e51b8152600401610202906109c7565b5f84815260026020526040902034600382015560040180546001919060ff19168280610401565b6001600160a01b0382166107c85760405162461bcd60e51b815260206004820152601c60248201527f416464726573732063616e742062652061646472657373207a65726f000000006044820152606401610202565b6001600160a01b03811661081e5760405162461bcd60e51b815260206004820152601c60248201527f416464726573732063616e742062652061646472657373207a65726f000000006044820152606401610202565b5f8054808252600260208190526040808420928355600190920180546001600160a01b038781166001600160a01b03199283161790925584548552838520909201805491861691909216179055815482528120600401805460ff1916905580549080610889836109ee565b91905055505050565b5f602082840312156108a2575f5ffd5b5035919050565b634e487b7160e01b5f52602160045260245ffd5b8581526001600160a01b038581166020830152841660408201526060810183905260a08101600483106108fe57634e487b7160e01b5f52602160045260245ffd5b8260808301529695505050505050565b80356001600160a01b0381168114610924575f5ffd5b919050565b5f5f6040838503121561093a575f5ffd5b6109438361090e565b91506109516020840161090e565b90509250929050565b60208082526024908201527f4f6e6c7920436f6e74726163742063616e2063616c6c20746869732066756e636040820152633a34b7b760e11b606082015260800190565b6020808252600f908201526e105b5bdd5b9d081b9bdd081c185a59608a1b604082015260600190565b6020808252600d908201526c496e76616c696420737461746560981b604082015260600190565b5f60018201610a0b57634e487b7160e01b5f52601160045260245ffd5b506001019056fea26469706673582212202365770e45e87e979da04957f92279caf31ffda2a9e020ed940503642ae5813564736f6c634300081f0033",
  "linkReferences": {},
  "deployedLinkReferences": {},
  "immutableReferences": {},
  "inputSourceName": "project/contracts/Escrow.sol",
  "buildInfoId": "solc-0_8_31-79fb429896f3a0d97ab2b5ff7b4c7d5ebe992caa"
}