{
  "_format": "hh3-artifact-1",
  "contractName": "MilestoneEscrow",
  "sourceName": "contracts/MilestoneEscrow.sol",
  "abi": [
    {
      "inputs": [
        {
          "internalType": "address",
          "name": "_freelancer",
          "type": "address"
        },
        {
          "internalType": "uint256",
          "name": "_milestoneCount",
          "type": "uint256"
        },
        {
          "internalType": "uint256",
          "name": "_amountPerMilestone",
          "type": "uint256"
        }
      ],
      "stateMutability": "payable",
      "type": "constructor"
    },
    {
      "anonymous": false,
      "inputs": [
        {
          "indexed": true,
          "internalType": "address",
          "name": "freelancer",
          "type": "address"
        },
        {
          "indexed": false,
          "internalType": "uint256",
          "name": "totalReleased",
          "type": "uint256"
        }
      ],
      "name": "AllMilestonesReleased",
      "type": "event"
    },
    {
      "anonymous": false,
      "inputs": [
        {
          "indexed": true,
          "internalType": "address",
          "name": "caller",
          "type": "address"
        },
        {
          "indexed": false,
          "internalType": "uint256",
          "name": "refundAmount",
          "type": "uint256"
        },
        {
          "indexed": false,
          "internalType": "uint256",
          "name": "timestamp",
          "type": "uint256"
        }
      ],
      "name": "ContractCancelled",
      "type": "event"
    },
    {
      "anonymous": false,
      "inputs": [
        {
          "indexed": true,
          "internalType": "uint256",
          "name": "milestoneId",
          "type": "uint256"
        },
        {
          "indexed": true,
          "internalType": "address",
          "name": "raiser",
          "type": "address"
        },
        {
          "indexed": false,
          "internalType": "string",
          "name": "reason",
          "type": "string"
        }
      ],
      "name": "DisputeRaised",
      "type": "event"
    },
    {
      "anonymous": false,
      "inputs": [
        {
          "indexed": true,
          "internalType": "address",
          "name": "client",
          "type": "address"
        },
        {
          "indexed": true,
          "internalType": "address",
          "name": "freelancer",
          "type": "address"
        },
        {
          "indexed": false,
          "internalType": "uint256",
          "name": "totalAmount",
          "type": "uint256"
        },
        {
          "indexed": false,
          "internalType": "uint256",
          "name": "milestoneCount",
          "type": "uint256"
        },
        {
          "indexed": false,
          "internalType": "uint256",
          "name": "amountPerMilestone",
          "type": "uint256"
        }
      ],
      "name": "Funded",
      "type": "event"
    },
    {
      "anonymous": false,
      "inputs": [
        {
          "indexed": true,
          "internalType": "uint256",
          "name": "milestoneId",
          "type": "uint256"
        },
        {
          "indexed": true,
          "internalType": "address",
          "name": "approver",
          "type": "address"
        },
        {
          "indexed": false,
          "internalType": "uint256",
          "name": "amountReleased",
          "type": "uint256"
        }
      ],
      "name": "MilestoneApproved",
      "type": "event"
    },
    {
      "anonymous": false,
      "inputs": [
        {
          "indexed": true,
          "internalType": "uint256",
          "name": "milestoneId",
          "type": "uint256"
        },
        {
          "indexed": false,
          "internalType": "uint256",
          "name": "timeoutTimestamp",
          "type": "uint256"
        },
        {
          "indexed": false,
          "internalType": "uint256",
          "name": "amountReleased",
          "type": "uint256"
        }
      ],
      "name": "MilestoneAutoApproved",
      "type": "event"
    },
    {
      "anonymous": false,
      "inputs": [
        {
          "indexed": true,
          "internalType": "uint256",
          "name": "milestoneId",
          "type": "uint256"
        },
        {
          "indexed": true,
          "internalType": "address",
          "name": "freelancer",
          "type": "address"
        },
        {
          "indexed": false,
          "internalType": "uint256",
          "name": "timestamp",
          "type": "uint256"
        }
      ],
      "name": "MilestoneCompleted",
      "type": "event"
    },
    {
      "inputs": [],
      "name": "AUTO_APPROVE_TIMEOUT",
      "outputs": [
        {
          "internalType": "uint256",
          "name": "",
          "type": "uint256"
        }
      ],
      "stateMutability": "view",
      "type": "function"
    },
    {
      "inputs": [],
      "name": "amountPerMilestone",
      "outputs": [
        {
          "internalType": "uint256",
          "name": "",
          "type": "uint256"
        }
      ],
      "stateMutability": "view",
      "type": "function"
    },
    {
      "inputs": [
        {
          "internalType": "uint256",
          "name": "id",
          "type": "uint256"
        }
      ],
      "name": "approveMilestone",
      "outputs": [],
      "stateMutability": "nonpayable",
      "type": "function"
    },
    {
      "inputs": [
        {
          "internalType": "uint256",
          "name": "",
          "type": "uint256"
        }
      ],
      "name": "approved",
      "outputs": [
        {
          "internalType": "bool",
          "name": "",
          "type": "bool"
        }
      ],
      "stateMutability": "view",
      "type": "function"
    },
    {
      "inputs": [],
      "name": "approvedMilestones",
      "outputs": [
        {
          "internalType": "uint256",
          "name": "",
          "type": "uint256"
        }
      ],
      "stateMutability": "view",
      "type": "function"
    },
    {
      "inputs": [
        {
          "internalType": "uint256",
          "name": "id",
          "type": "uint256"
        }
      ],
      "name": "autoApprove",
      "outputs": [],
      "stateMutability": "nonpayable",
      "type": "function"
    },
    {
      "inputs": [
        {
          "internalType": "uint256",
          "name": "id",
          "type": "uint256"
        }
      ],
      "name": "canAutoApprove",
      "outputs": [
        {
          "internalType": "bool",
          "name": "",
          "type": "bool"
        }
      ],
      "stateMutability": "view",
      "type": "function"
    },
    {
      "inputs": [],
      "name": "cancel",
      "outputs": [],
      "stateMutability": "nonpayable",
      "type": "function"
    },
    {
      "inputs": [],
      "name": "cancelled",
      "outputs": [
        {
          "internalType": "bool",
          "name": "",
          "type": "bool"
        }
      ],
      "stateMutability": "view",
      "type": "function"
    },
    {
      "inputs": [],
      "name": "client",
      "outputs": [
        {
          "internalType": "address",
          "name": "",
          "type": "address"
        }
      ],
      "stateMutability": "view",
      "type": "function"
    },
    {
      "inputs": [
        {
          "internalType": "uint256",
          "name": "",
          "type": "uint256"
        }
      ],
      "name": "completed",
      "outputs": [
        {
          "internalType": "bool",
          "name": "",
          "type": "bool"
        }
      ],
      "stateMutability": "view",
      "type": "function"
    },
    {
      "inputs": [
        {
          "internalType": "uint256",
          "name": "",
          "type": "uint256"
        }
      ],
      "name": "completionTime",
      "outputs": [
        {
          "internalType": "uint256",
          "name": "",
          "type": "uint256"
        }
      ],
      "stateMutability": "view",
      "type": "function"
    },
    {
      "inputs": [],
      "name": "freelancer",
      "outputs": [
        {
          "internalType": "address",
          "name": "",
          "type": "address"
        }
      ],
      "stateMutability": "view",
      "type": "function"
    },
    {
      "inputs": [],
      "name": "getRemainingBalance",
      "outputs": [
        {
          "internalType": "uint256",
          "name": "",
          "type": "uint256"
        }
      ],
      "stateMutability": "view",
      "type": "function"
    },
    {
      "inputs": [],
      "name": "isFullyReleased",
      "outputs": [
        {
          "internalType": "bool",
          "name": "",
          "type": "bool"
        }
      ],
      "stateMutability": "view",
      "type": "function"
    },
    {
      "inputs": [
        {
          "internalType": "uint256",
          "name": "id",
          "type": "uint256"
        }
      ],
      "name": "markCompleted",
      "outputs": [],
      "stateMutability": "nonpayable",
      "type": "function"
    },
    {
      "inputs": [],
      "name": "milestoneCount",
      "outputs": [
        {
          "internalType": "uint256",
          "name": "",
          "type": "uint256"
        }
      ],
      "stateMutability": "view",
      "type": "function"
    },
    {
      "inputs": [
        {
          "internalType": "uint256",
          "name": "id",
          "type": "uint256"
        },
        {
          "internalType": "string",
          "name": "reason",
          "type": "string"
        }
      ],
      "name": "raiseDispute",
      "outputs": [],
      "stateMutability": "nonpayable",
      "type": "function"
    },
    {
      "inputs": [],
      "name": "releasedMilestones",
      "outputs": [
        {
          "internalType": "uint256",
          "name": "",
          "type": "uint256"
        }
      ],
      "stateMutability": "view",
      "type": "function"
    }
  ],
  "bytecode": "0x6101006040526040516111be3803806111be8339810160408190526100239161023c565b6001600160a01b03831661007e5760405162461bcd60e51b815260206004820152601a60248201527f496e76616c696420667265656c616e636572206164647265737300000000000060448201526064015b60405180910390fd5b336001600160a01b038416036100d65760405162461bcd60e51b815260206004820152601b60248201527f436c69656e742063616e6e6f7420626520667265656c616e63657200000000006044820152606401610075565b5f82116101255760405162461bcd60e51b815260206004820152601f60248201527f4174206c65617374206f6e65206d696c6573746f6e65207265717569726564006044820152606401610075565b5f81116101745760405162461bcd60e51b815260206004820181905260248201527f416d6f756e7420706572206d696c6573746f6e65206d757374206265203e20306044820152606401610075565b5f61017f828461027b565b90508034146101d05760405162461bcd60e51b815260206004820152601860248201527f4d7573742066756e6420616c6c206d696c6573746f6e657300000000000000006044820152606401610075565b3360808190526001600160a01b03851660a081905260c085905260e084905260408051348152602081018790529081018590529091907fd67ae805400a673f32340691a1a850cf59e211ab6ae7d8ae2f20d6a345dd73d69060600160405180910390a3505050506102a4565b5f5f5f6060848603121561024e575f5ffd5b83516001600160a01b0381168114610264575f5ffd5b602085015160409095015190969495509392505050565b808202811582820484141761029e57634e487b7160e01b5f52601160045260245ffd5b92915050565b60805160a05160c05160e051610e696103555f395f81816102cb0152818161054a01528181610577015281816105cd0152818161071d015261074601525f81816101250152818161026c0152818161062201528181610819015281816109880152610b3b01525f818161022a01528181610358015281816105290152818161064b015281816106fc01526107a001525f818161015f0152818161032601528181610a170152610add0152610e695ff3fe608060405234801561000f575f5ffd5b506004361061011c575f3560e01c8063a37dda2c116100a9578063c438b40f1161006e578063c438b40f146102b3578063c8860f0e146102c6578063cac5c512146102ed578063d067493f14610300578063ea8a1af014610313575f5ffd5b8063a37dda2c14610225578063a9f1dd9c1461024c578063b45d941214610254578063bade2b4014610267578063c0cca5ef14610291575f5ffd5b80635aef573c116100ef5780635aef573c146101a85780637962a2dd146101bd5780637d4061e6146101c75780638897bbca146101f95780639a82a09a14610218575f5ffd5b80630681ca5514610120578063109e94cf1461015a5780632fba2c85146101995780633c9d31321461019f575b5f5ffd5b6101477f000000000000000000000000000000000000000000000000000000000000000081565b6040519081526020015b60405180910390f35b6101817f000000000000000000000000000000000000000000000000000000000000000081565b6040516001600160a01b039091168152602001610151565b47610147565b61014760015481565b6101bb6101b6366004610d32565b61031b565b005b6101476212750081565b6101e96101d5366004610da9565b60036020525f908152604090205460ff1681565b6040519015158152602001610151565b610147610207366004610da9565b60046020525f908152604090205481565b6005546101e99060ff1681565b6101817f000000000000000000000000000000000000000000000000000000000000000081565b6101475f5481565b6101bb610262366004610da9565b610472565b6001547f0000000000000000000000000000000000000000000000000000000000000000146101e9565b6101e961029f366004610da9565b60026020525f908152604090205460ff1681565b6101bb6102c1366004610da9565b6106b0565b6101477f000000000000000000000000000000000000000000000000000000000000000081565b6101bb6102fb366004610da9565b610795565b6101e961030e366004610da9565b610985565b6101bb610a0c565b336001600160a01b037f000000000000000000000000000000000000000000000000000000000000000016148061037a5750336001600160a01b037f000000000000000000000000000000000000000000000000000000000000000016145b610382575f5ffd5b5f8381526002602052604090205460ff166103d85760405162461bcd60e51b8152602060048201526011602482015270139bdd0818dbdb5c1b195d1959081e595d607a1b60448201526064015b60405180910390fd5b5f8381526003602052604090205460ff16156104295760405162461bcd60e51b815260206004820152601060248201526f105b1c9958591e48185c1c1c9bdd995960821b60448201526064016103cf565b336001600160a01b0316837f1b84372106d77c6daea0dda35bbc0229d10a83f58ec8990928849251936823418484604051610465929190610dc0565b60405180910390a3505050565b61047b81610b39565b5f81815260046020526040902054610497906212750090610e02565b4210156104e65760405162461bcd60e51b815260206004820152601760248201527f54696d656f7574206e6f7420726561636865642079657400000000000000000060448201526064016103cf565b5f818152600360205260408120805460ff191660011790558054908061050b83610e1b565b909155505060018054905f61051f83610e1b565b919050555061056e7f00000000000000000000000000000000000000000000000000000000000000007f0000000000000000000000000000000000000000000000000000000000000000610c98565b604080514281527f0000000000000000000000000000000000000000000000000000000000000000602082015282917f64f9693f2536a415f3acc25ae27ad5957258acb86e95611cdcf4c6033fa3551a910160405180910390a26040517f000000000000000000000000000000000000000000000000000000000000000081525f9082907ffe731b8534f38a55c98725a977efe67da793f35fb32ca4d1d947c01d80259bc2906020015b60405180910390a37f0000000000000000000000000000000000000000000000000000000000000000600154036106ad577f00000000000000000000000000000000000000000000000000000000000000006001600160a01b03167fb729145b9d9a99bae64e0063dc83af15e00d8cc280817302286e6907c421fd4e476040516106a491815260200190565b60405180910390a25b50565b6106b981610b39565b5f818152600360205260408120805460ff19166001179055805490806106de83610e1b565b909155505060018054905f6106f283610e1b565b91905055506107417f00000000000000000000000000000000000000000000000000000000000000007f0000000000000000000000000000000000000000000000000000000000000000610c98565b6040517f00000000000000000000000000000000000000000000000000000000000000008152339082907ffe731b8534f38a55c98725a977efe67da793f35fb32ca4d1d947c01d80259bc290602001610618565b336001600160a01b037f000000000000000000000000000000000000000000000000000000000000000016146108175760405162461bcd60e51b815260206004820152602160248201527f4f6e6c7920667265656c616e6365722063616e206d61726b20636f6d706c65746044820152606560f81b60648201526084016103cf565b7f0000000000000000000000000000000000000000000000000000000000000000811061087d5760405162461bcd60e51b8152602060048201526014602482015273125b9d985b1a59081b5a5b195cdd1bdb99481a5960621b60448201526064016103cf565b5f8181526002602052604090205460ff16156108db5760405162461bcd60e51b815260206004820152601b60248201527f416c7265616479206d61726b656420617320636f6d706c65746564000000000060448201526064016103cf565b60055460ff16156109265760405162461bcd60e51b815260206004820152601560248201527410dbdb9d1c9858dd081a5cc818d85b98d95b1b1959605a1b60448201526064016103cf565b5f818152600260209081526040808320805460ff19166001179055600482529182902042908190559151918252339183917f785f24b6a98eafa7fd61a09cf31775b7bbc039cc966c9c6fad18743e13a9e1ea910160405180910390a350565b5f7f0000000000000000000000000000000000000000000000000000000000000000821015806109c357505f8281526002602052604090205460ff16155b806109db57505f8281526003602052604090205460ff165b156109e757505f919050565b5f82815260046020526040902054610a03906212750090610e02565b42101592915050565b336001600160a01b037f00000000000000000000000000000000000000000000000000000000000000001614610a7d5760405162461bcd60e51b815260206004820152601660248201527513db9b1e4818db1a595b9d0818d85b8818d85b98d95b60521b60448201526064016103cf565b60055460ff1615610ac45760405162461bcd60e51b8152602060048201526011602482015270105b1c9958591e4818d85b98d95b1b1959607a1b60448201526064016103cf565b6005805460ff19166001179055478015610b0257610b027f000000000000000000000000000000000000000000000000000000000000000082610c98565b6040805182815242602082015233917f6c5600c2f5d7b4db3a633e0dc94afdafdc7108ffb86326d40b5fddb30237c48191016106a4565b7f00000000000000000000000000000000000000000000000000000000000000008110610b9f5760405162461bcd60e51b8152602060048201526014602482015273125b9d985b1a59081b5a5b195cdd1bdb99481a5960621b60448201526064016103cf565b5f8181526002602052604090205460ff16610bfc5760405162461bcd60e51b815260206004820152601b60248201527f4d696c6573746f6e65206e6f7420636f6d706c6574656420796574000000000060448201526064016103cf565b5f8181526003602052604090205460ff1615610c4d5760405162461bcd60e51b815260206004820152601060248201526f105b1c9958591e48185c1c1c9bdd995960821b60448201526064016103cf565b60055460ff16156106ad5760405162461bcd60e51b815260206004820152601560248201527410dbdb9d1c9858dd081a5cc818d85b98d95b1b1959605a1b60448201526064016103cf565b5f826001600160a01b0316826040515f6040518083038185875af1925050503d805f8114610ce1576040519150601f19603f3d011682016040523d82523d5f602084013e610ce6565b606091505b5050905080610d2d5760405162461bcd60e51b8152602060048201526013602482015272115512081d1c985b9cd9995c8819985a5b1959606a1b60448201526064016103cf565b505050565b5f5f5f60408486031215610d44575f5ffd5b83359250602084013567ffffffffffffffff811115610d61575f5ffd5b8401601f81018613610d71575f5ffd5b803567ffffffffffffffff811115610d87575f5ffd5b866020828401011115610d98575f5ffd5b939660209190910195509293505050565b5f60208284031215610db9575f5ffd5b5035919050565b60208152816020820152818360408301375f818301604090810191909152601f909201601f19160101919050565b634e487b7160e01b5f52601160045260245ffd5b80820180821115610e1557610e15610dee565b92915050565b5f60018201610e2c57610e2c610dee565b506001019056fea2646970667358221220fd8a44cfa2c0fde7a86be3779410d0f1721d7b4a6be97ec22064f767ce80d86e64736f6c634300081c0033",
  "linkReferences": {},
  "deployedLinkReferences": {},
  "immutableReferences": {
    "3": [
      {
        "length": 32,
        "start": 351
      },
      {
        "length": 32,
        "start": 806
      },
      {
        "length": 32,
        "start": 2583
      },
      {
        "length": 32,
        "start": 2781
      }
    ],
    "5": [
      {
        "length": 32,
        "start": 554
      },
      {
        "length": 32,
        "start": 856
      },
      {
        "length": 32,
        "start": 1321
      },
      {
        "length": 32,
        "start": 1611
      },
      {
        "length": 32,
        "start": 1788
      },
      {
        "length": 32,
        "start": 1952
      }
    ],
    "7": [
      {
        "length": 32,
        "start": 293
      },
      {
        "length": 32,
        "start": 620
      },
      {
        "length": 32,
        "start": 1570
      },
      {
        "length": 32,
        "start": 2073
      },
      {
        "length": 32,
        "start": 2440
      },
      {
        "length": 32,
        "start": 2875
      }
    ],
    "9": [
      {
        "length": 32,
        "start": 715
      },
      {
        "length": 32,
        "start": 1354
      },
      {
        "length": 32,
        "start": 1399
      },
      {
        "length": 32,
        "start": 1485
      },
      {
        "length": 32,
        "start": 1821
      },
      {
        "length": 32,
        "start": 1862
      }
    ]
  },
  "inputSourceName": "project/contracts/MilestoneEscrow.sol",
  "buildInfoId": "solc-0_8_28-7bdabc20085237a11eb5670fa33121eb3a55f7b5"
}